:1005AA00021A00000208000002170000021C0000E4
:1005BA00020E0000020A000102150004020C0001EA
:0305CA000110001D
:100026001206247F027E2012060A7508008F097FB9
:10003600037E2012060A7517008F187F047E201291
:10004600060A751C008F1D7F057E2012060A750E96
:10005600008F0F7F067E2012060A750A008F0BE5B9
:100066001164AB600302038EE5146455600302035A
:100076008EE512600302011CE513B40A0040030278
:10008600011190008FF82828730200AD0200DB02F0
:1000960000DF0200E30200E70200EF0200F30200C5
:1000A600FB02010302010B7F007E201205EF7F0297
:1000B6001205CE7F031205CE7D017F047E20120538
:1000C600D27D217F057E201205D27D017F067E200E
:1000D6001205D28036C280800AD280802AC28080F1
:1000E6000ED280C281D2828022C280800AD280D281
:1000F60081C2828016D280D281D282800E751A0089
:10010600751B018006C280C281C282E51364086045
:1001160005E4F51AF51BE5126401600302038BE59D
:100126000D450C703EE51364186038E513C394154D
:100136004005E513B41709C292120639D292801708
:10014600E513C394304009E5136415600302038B7D
:10015600C290120639D290120639750C00750D013F
:1001660002038BE513C39415504CE50B6402450A54
:100176007013C2927F96FE12063DD2921206397510
:100186000A00750B01E51365097002E5086023AEE8
:1001960008AF097C007D1412049F8C088D09C29259
:1001A600120639D2921206390509E50970D70508F3
:1001B60080D3AD098060E513C394205071E5132404
:1001C600E960301460552403600302038BC2907FFC
:1001D600C87E0012063DD290E50B6401450A700800
:1001E600F50A750B0202038B050FE50F7002050E6B
:1001F6000202F1C292120639D292120639E50B6456
:1002060002450A7008F50A750B0102038B0509E51C
:100216000970020508FD7F02020386C2917F027EF5
:1002260000120003D291E4F50CF50D02038BE513E1
:10023600C39430504DE50B6401450A7013C2907F9C
:1002460096FE12063DD290120639750A00750B020B
:10025600E513650F7002E50E6021E50F642D450E6E
:100266007005F50E750F20C290120639D29012064F
:1002760039050FE50F70D9050E80D5AD0F7F050244
:100286000386E513C39450400302038BE50D640116
:10029600450C600302038BE51324BE6054147003FF
:1002A60002032B1470030203652403600302038B0D
:1002B600E50B6401450A600302038BE518640545F6
:1002C60017700302038B751500751604E5161516CF
:1002D600AE15700215154E600A120637D291120637
:1002E6003980E90518E51870020517FD7F0302033A
:1002F60086E50B6401450A600302038BE518640179
:100306004517700302038BE51845177005F5177539
:100316001805120637D291E518151870021517AD93
:10032600187F03805BE50B6402450A7058E51D647F
:1003360005451C6050751500751604E5161516AEB4
:1003460015700215154E600A120637D2911206393B
:1003560080E9051DE51D7002051CFD7F048021E571
:100366000B6402450A701EE51D6401451C601612E9
:100376000637D291E51D151D7002151CAD1D7F04B3
:100386007E20120570E4F514D3E51B9400E51A648B
:100396008094805003020065E51A705FE51B14B473
:1003A600070050579003B875F003A4C58325F0C520
:1003B60083730203CD0203D10203D90203DD0203D4
:1003C600E50203ED0203F5C280800ED280C281C22F
:1003D600828028C2808012D280C281D282801CC2D2
:1003E60080D281D2828014D280D281C282800CD205
:1003F60080D281D282751A00751B017F017E0012A0
:0D0406000003051BE51B7002051A020065CE
:0300230002052AA9
:10052A00C0E0C0D075D000C000859919C298E519FD
:10053A00B4AB07E5107003751001E510D3940040C1
:10054A00160510740F2510F8A619740F2510F8E671
:10055A00F5993099FDC299E510B40503751000D0DC
:06056A0000D0D0D0E03209
:1005EF0075E78175E5038FE48EE375E64675E6B929
:0B05FF00001206487F2C7E0102063D22
:100570008E1E8F1F8D207F007E201205EFAD097F1C
:10058000027E201205D2AD187F037E201205D2AD67
:100590001D7F047E201205D2AD0F7F057E2012053F
:0A05A000D2AD0B7F067E200205D2CB
:0405CE007D017E200D
:1005D20075E78175E5028FE48EE38DE275E6467577
:0D05E200E6B9001206487F2C7E0102063D9E
:10060A0075E78175E5018FE48EE375E64675E6B90F
:09061A000085E21E120648AF1E25
:0106230022B4
:08064800E4F5E7F5E5F5E62213
:10062400759850758920758DFD758BFDD2ACD2AF50
:03063400D28E2241
:06063700C2917F967E00D7
:0B063D00EF1FAC0670011E4C70F6228F
:10000300D3EF9400EE6480948040137D0A7CDD7B03
:0E001300CFDBFEDCFADDF6EF1F70E51E80E2AB
:0100210022BC
:03000000020413E4
:0C041300787FE4F6D8FD75812002045AC1
:10049F00C2D5EC30E709B2D5E4C39DFDE49CFCEE78
:1004AF0030E715B2D5E4C39FFFE49EFE1204D5C317
:1004BF00E49DFDE49CFC80031204D530D507C3E412
:0604CF009FFFE49EFE22E7
:10041F00020026E493A3F8E493A34003F68001F2CD
:10042F0008DFF48029E493A3F85407240CC8C333DE
:10043F00C4540F4420C8834004F456800146F6DFAD
:10044F00E4800B01020408102040809005AAE47E8E
:10045F00019360BCA3FF543F30E509541FFEE493A2
:10046F00A360010ECF54C025E060A840B8E493A369
:10047F00FAE493A3F8E493A3C8C582C8CAC583CA94
:10048F00F0A3C8C582C8CAC583CADFE9DEE780BE4C
:0105CD00002D
:1004D500BC000BBE0029EF8DF084FFADF022E4CC0B
:1004E500F875F008EF2FFFEE33FEEC33FCEE9DECD4
:1004F500984005FCEE9DFE0FD5F0E9E4CEFD22ED1A
:10050500F8F5F0EE8420D21CFEADF075F008EF2F63
:10051500FFED33FD4007985006D5F0F222C398FD54
:050525000FD5F0EA22F1
:00000001FF
